:020000040000FA
:10000000F0F5FF1FD7000000E3000000E50000004E
:1000100000000000000000000000000000000000E0
:10002000000000000000000000000000E7000000E9
:100030000000000000000000E9000000EB000000EC
:10004000ED000000ED000000ED000000ED000000FC
:10005000ED000000ED000000ED000000ED000000EC
:10006000ED000000ED000000ED000000ED000000DC
:10007000ED000000ED000000A1370000ED000000E1
:10008000ED000000ED000000ED000000ED000000BC
:10009000ED000000ED00000059170000ED00000029
:1000A000550B0000ED000000ED000000ED00000029
:1000B000ED000000ED000000ED000000ED0000008C
:1000C0000348854600F092FC004800479D4F000021
:1000D000F0F5FF1F704706488047064880470648EE
:1000E0000047FEE7FEE7FEE7FEE7FEE7FEE700006B
:1000F00011370000D5000000C100000030B50B46EC
:10010000014600202022012409E00D46D5409D42F1
:1001100005D31D469540491B254695404019154677
:10012000521E002DF1DC30BD70B50024254600289C
:1001300001DA01244042002901DA01254942FFF792
:10014000DDFFAC4200D04042002C00D0494270BDDF
:1001500003460B439B0703D009E008C9121F08C0E0
:10016000042AFAD203E00B780370401C491C521E8B
:10017000F9D27047F8B502464A40D40F42004B000E
:1001800052085B089A4202D20246084611464A00CB
:1001900023D0C30D4A00DDB2120EAD1A202D35DA80
:1001A00049020126490AF6058A19002C00D052425C
:1001B00020214F1B1146B9402A411018C20D9A4206
:1001C00021D0002C17D0012D08DCDA05801AD20FBF
:1001D0008019D207DBB200F051FBF8BDDA05801AB6
:1001E000012340001B06C01880185A428018CA0F0D
:1001F0001043490007E04908C2071143DA05801A95
:1002000080194008801800F031FBF8BD6100012220
:10021000511A001BF7E70122D2075140AAE7012239
:10022000D2075040A6E770B502464A40D50F4000BD
:100230004A00ED0740085208002814D0002A12D0C6
:10024000C40DD30D41020120C0055202490A520AD1
:10025000E41A091812187D34914201D3641C00E09D
:100260004900002C01DA002070BD0023914201D327
:10027000891A0343400849000028F7D100290AD011
:10028000914202D10121C90705E0914201D2012129
:1002900001E00121C943E005C018401900F0E6FA69
:1002A00070BD0000F0B51FB488B00B990998002408
:1002B00048400999C00F490049080991C0070B99A6
:1002C0000090490049080B9109990898A6460843EF
:1002D0001CD00B990A98084318D0099801244000B3
:1002E000420D4800410D099824050003000B2043EE
:1002F00009900B980003000B20430B9050181C49E9
:100300004018002201901446104605E000200146E6
:100310000DB0F0BD032801DA034600E003239C463C
:10032000C11A0AAE0AE05F0008ADED5B4F00F75B53
:100330007D430027AA187C41491C5B1E6145F2DD04
:10034000410004AB5A522104120C0A43240C401CF5
:100350000828DFDB01980290009970460191009017
:10036000059B049A0799069800F0CEFAD0E70000A2
:100370000DFCFFFFC217C10F504010B54018CA074F
:100380009623002100F07AFA10BD10B500229623C2
:10039000114600F073FA10BD0EB5C217C10F5040E0
:1003A000CA0740180021054B0293019200910A46AA
:1003B0000B4600F0A9FA03B000BD000033040000B2
:1003C0000EB505490291002100910A460B460191A4
:1003D00000F09AFA03B000BD330400000122D207F6
:1003E000002800DB101A002900DB511A81427047F7
:1003F00002E008C8121F08C1002AFAD170477047EE
:10040000FFFFFFFFFFFFFFFFFFFFFFFFFFFFFEFEFE
:10041000F0B507460846584087B0C00F0490480022
:100420000E46590040084908BC1A884105D2384692
:1004300031461E4617460B460246580040081043F8
:100440004CD0300D039040055900400D490D0590EA
:10045000401A0290402872DA18030121000B0905A6
:100460000843019004980092002805D00199524257
:100470000020884100920190029840210A1A0199B7
:10048000009800F0BFF905460C466B4607CB00F01C
:10049000DAF9C0197141039A0E0D0023D71756409F
:1004A0001A467A40164344D0049A002A2DD0029A64
:1004B000012A039A15DC1205C01A9141012636055E
:1004C000001C7141D20F059ED20700930192029643
:1004D0002A46234600F018FA07B0F0BD38463146E8
:1004E000FAE71605224A0F46B218C01AB741012191
:1004F0000905001C4F4100187F4111461818794129
:10050000E20F10436D19644113E0E2076D081543D3
:100510006408C2071443039A01261205C01A9141C8
:100520003605001C7141CE07400830434908C01809
:1005300051412A46234600F0DAF9CDE7FFE7049857
:1005400001224000C117121A00238B410498314642
:10055000C417381AA141EEE730B40124E407634020
:1005600030BC55E730B40124E407614030BC4FE7AC
:100570000000E0FFF0B50C465C4085B0E40FE407F6
:1005800003944C000026640859009446490802462A
:100590000296224321D062460A431ED06200570DC4
:1005A0004A000E032303550D012402462C4924055D
:1005B000781B1B0B360B40182343264361460090E3
:1005C0001C46501AB44103D30098401C009002E02E
:1005D000921800985B41002803DA0020014605B01C
:1005E000F0BD0020012109050746864611E064465A
:1005F0001D46141BB54106D36546521BB3417446D4
:1006000007430C43A646CD074008490828439218E3
:100610005B4105460D43EAD11046184313D06046AE
:10062000194650407140084306D06046101AB34145
:1006300006D20122002306E000220123DB0702E0AC
:100640000122D2435310009874460105381C6141C1
:10065000029C039D0019694100F049F9BFE70000C1
:10066000FD030000C20F410040020123400ADB05E8
:10067000D207090EC0187F2901DA00207047962999
:1006800003DC9623591AC84001E096398840002AB5
:10069000F4D040427047000070B5CD0F4A00090306
:1006A0000123090B1B0519430B4BED070024520DC9
:1006B0009A4201DA002070BD074B34339A4203DCC2
:1006C0009A1A00F0AFF802E00449511888402C4310
:1006D000F1D0404270BD0000FF030000CDFBFFFFE2
:1006E000C20FD207400040080BD0C10D0723DB0129
:1006F000C91840020905400A1143C20840071143C6
:10070000704700200146704710B5002904DB012422
:10071000E40740428C412146002B04DB1C460123A8
:10072000DB075242A3418B4200D1824210BD000040
:1007300010B5002904DB0124E40740428C41214626
:10074000002B04DB1C460123DB075242A3419942E4
:1007500000D1904210BD0000CB0FDB07490010B55F
:10076000490802460A4307D00A0D07240903E40199
:10077000090B121B002A01DC002010BDC900440F28
:100780000C43C100E018D205801800F06FF810BDCE
:100790000122D207002800DB101A002900DB511AC1
:1007A00088427047F0B51FB40646002082B0054667
:1007B0004024019100901BE0019922460F463046EB
:1007C00000F030F8049A059B801A994110D3104626
:1007D0001946224600F016F8361A8F410197224634
:1007E00001200021009F00F00DF838184D410090C5
:1007F0002046641E0028DFDC019B00982946324613
:1008000007B0F0BD10B5202A04DB0146203A914024
:10081000002010BD914020239C1A0346E340194359
:10082000904010BD10B5202A04DB0846203AD04085
:10083000002110BD0B46D340D0402024A21A914085
:100840000843194610BD10B5202A06DBCB17084611
:10085000203A1041C1170B4306E00B461341D0402C
:100860002024A21A91400843194610BD002904DA39
:10087000401C490001D140084000704770B400247A
:10088000050C05D11024000402D1002921D0112427
:10089000050E01D100020834050F01D10001241D0D
:1008A000850F01D18000A41C002801DB4000641CDE
:1008B000002908D020252E1B0D46F540A14000D070
:1008C00001212943084301061B1B000ADB1D02D539
:1008D000002070BC7047DB05181880180029F8DA72
:1008E000401C4900F5D170BC40084000704710B56D
:1008F000002B08DA0024401C614192185B411A4326
:1009000001D14008400010BDF0B51FB482B00546CB
:100910000C0003D0084603F013FB02E003F010FBC9
:1009200020300246009021462846FFF76BFF049BCB
:10093000059A04460F4618431143084314D018463D
:1009400010431BD0009840210A1A18460599FFF75A
:1009500069FF05460E46009A05990498FFF752FF75
:10096000084305D0012004E02046394607B0F0BD19
:100970000020C11705430E432C43374300990E98BE
:100980006305401A7905E40A00220C43FD0A0A3087
:1009900002D500200146E9E70105101969410C9CC8
:1009A0000D9D00196941FFF7A2FFDFE74A00090327
:1009B0000123090B1B0519430A4B10B5520D9A422E
:1009C00002DA0020014610BD064B34339A4203DCA4
:1009D0009A1AFFF727FF10BD034BD218FFF712FF3B
:1009E00010BD0000FF030000CDFBFFFF064C0125FA
:1009F000064E05E0E36807CC2B430C3C98471034C7
:100A0000B442F7D3FFF760FB185B0000385B0000CF
:100A100010B5022003F008FF0F2003F005FF0D20A2
:100A200003F002FF0E2003F0FFFE0C2003F0FCFE9B
:100A3000072003F0F9FE062003F0F6FE10BD0000CB
:100A400010B54B21C901022004F05CFB0549086088
:100A5000022004F00BFC4B21C901012004F052FBE1
:100A600010BD00007CF0FF1F10B538480078012849
:100A70000FD10121172004F0F7F90121162004F00D
:100A8000F3F90121432004F0EFF90121422004F0A1
:100A9000EBF91A2004F064F9642104464C431B204E
:100AA00004F05EF90A21484324181C2004F058F988
:100AB000201864282CD008DC00280DD0012811D083
:100AC000082816D009283FD11BE0652827D06E28BA
:100AD0002DD06F2838D131E000201D4908704870B2
:100AE000887031E000201A49087048700120887031
:100AF0002AE0002016490870012048700020887004
:100B000022E00020124908700120487088701BE024
:100B100001200F49087000204870887014E00120FF
:100B20000B49087000204870012088700CE00120FB
:100B30000749087048700020887005E001200449CA
:100B400008704870887000BF00BF10BD2FF0FF1FF5
:100B500086F0FF1F10B5142004F0B4FA032004F04F
:100B6000FFF8002828D1844880780A214843824928
:100B700049784018002806D001280AD00A280ED04B
:100B80000B2818D111E07D48C08864307B49C880AB
:100B900000BF7B48008832307949088000BF774821
:100BA000C08864387549C88000BF754800883238ED
:100BB0007349088000BF00BF022004F0D1F800286C
:100BC0002AD16D4880780A2148436B4949784018FA
:100BD000002806D001280AD00A280FD00B281AD1E5
:100BE00012E06648008964306449088100BF6548A6
:100BF0000088143000B26349088000BF5F48008954
:100C000064385E49088100BF5E480088143800B22D
:100C10005C49088000BF00BF012004F0A1F8002853
:100C20002AD1554880780A214843534949784018C9
:100C3000002806D001280AD00A280FD00B281AD184
:100C400012E04E48408964304C49488100BF4E480C
:100C50000088143000B24C49088000BF47484089E2
:100C600064384649488100BF47480088143800B2BC
:100C70004549088000BF00BF002004F071F800283B
:100C80005ED13D480078002844D140480078401C9F
:100C90003E49087008460078042801D101200870F8
:100CA0003A480078012804D0022812D0032830D115
:100CB0001FE0002007E04100354A515A42002F4B07
:100CC0009952411CC8B20628F5DBFA203149088048
:100CD0001FE0002007E041002F4A515A4200274BF5
:100CE0009952411CC8B20628F5DBE6202949088044
:100CF0000FE0002007E04100284A515A42001F4BF4
:100D00009952411CC8B20628F5DBC8202149088049
:100D100000BF00BF18480078012811D1204804F016
:100D2000D1F900201F4908701A49085E1E49488001
:100D30000880084600881D4908801B484088488074
:100D400000BF002004F00CF80028FAD0012004F0C5
:100D500007F80028F5D0022004F002F80028F0D0AF
:100D6000032003F0FDFF0028EBD011488068242108
:100D700008430F49886010BD86F0FF1FAEF0FF1FCB
:100D800064F0FF1FA2F0FF1FA4F0FF1F76F0FF1F0B
:100D90000C5B000058F0FF1FF45A0000005B0000DD
:100DA000A40600002FF0FF1F54F0FF1F5AF0FF1F92
:100DB0000090074010B50221002004F073F80221D2
:100DC000012004F06FF80221084604F06BF80221BC
:100DD000032004F067F80121182000F069F81820BA
:100DE00000F05CF8012200211A2003F0CFFF1A2046
:100DF00004F028F9012200211B2003F0C7FF1B206B
:100E000004F020F9012200211C2003F0BFFF1C2068
:100E100004F018F910BD000010B50023194A022192
:100E2000084603F00BFE0023164A0321022003F0BC
:100E300005FE0023134A0421022003F0FFFD0023D6
:100E4000104A0521022003F0F9FD012003F042FDC4
:100E5000002211463D2003F099FF002003F03AFDE7
:100E600000221146212003F091FF3D2004F0EAF812
:100E7000202004F0E7F8212004F0E4F8272004F013
:100E8000E1F810BD10270000C206D20E01219140EA
:100E9000014A11607047000000E100E0C206D20E76
:100EA00001219140014A11607047000000E100E01B
:100EB00010B5002819DA1A4A03071B0F083B9B08D4
:100EC0009B00D2588307DC0EFF23A3409A438B0775
:100ED0001B0E8407E40EA3401A43114B0407240F92
:100EE000083CA408A4001A5118E00E4A03231B0270
:100EF000D21883089B00D2588307DC0EFF23A3403F
:100F00009A438B071B0E8407E40EA3401A43054B3C
:100F1000032424021B198408A4001A5110BD0000E8
:100F20001CED00E000E100E009E07D21C90100BF07
:100F30000A464B1E99B2002AFAD1421E90B20028EE
:100F4000F3D1704770B50646002415E02146B03154
:100F5000C8B200F022F9012000F01FF9102000F0C3
:100F60001CF9002504E0304600F040F9681CC5B2C9
:100F7000802DF8DB601CC4B2082CE7DB70BDF8B52F
:100F800007460D460624002028550EE0601EC4B218
:100F90000A213846FFF7C8F8CEB20A213846FFF7D3
:100FA000C3F887B2304630302855002CEED1F8BD5A
:100FB00010B501221146392003F0E8FE002201217C
:100FC000382003F0E3FE01221146262003F0DEFE66
:100FD00001221146252003F0D9FE0121392003F01A
:100FE00043FF0021262003F03FFF3220FFF79CFF44
:100FF0000121262003F038FFAE2000F0CEF80020BB
:1010000000F0CBF8102000F0C8F8402000F0C5F840
:10101000812000F0C2F8CF2000F0BFF8A12000F03E
:10102000BCF8C82000F0B9F8A62000F0B6F8A82057
:1010300000F0B3F83F2000F0B0F8D32000F0ADF896
:10104000002000F0AAF8D52000F0A7F8802000F0DA
:10105000A4F8D92000F0A1F8F12000F09EF8DA20E1
:1010600000F09BF8122000F098F8DB2000F095F8D3
:10107000402000F092F8202000F08FF8022000F0CD
:101080008CF88D2000F089F8142000F086F8A42058
:1010900000F083F8A62000F080F8AF2000F07DF883
:1010A0000020FFF74FFF0021084600F05FF810BD59
:1010B000F7B582B0044615460020019000260027AF
:1010C00020E0E85D2038C0B201907E2C04DD0024D1
:1010D0000398401CC0B203902046039900F046F8E4
:1010E000002609E0062201995143094A8918885DC2
:1010F00000F07CF8701CC6B2062EF3DBA01DC4B253
:10110000781CC7B2E85D0028DBD105B0F0BD000057
:10111000C4520000FEB506460F461446002C07DAFE
:10112000604204B20FA239463046FFF7C1FF04E027
:101130000DA239463046FFF7BBFFB01DC6B2A0B2C4
:101140006946FFF71CFF00AD013507E02A46394626
:101150003046FFF7ADFFB01DC6B26D1C28780028E1
:10116000F4D1FEBD2D0000002000000070B5044643
:101170000D462946B031C8B200F00FF8F0212140E9
:1011800009110846103000F008F82107090F012264
:101190001143084600F001F870BD70B504460825FB
:1011A0000021252003F060FE0021392003F05CFEC1
:1011B00016E080202040002804D00121382003F0D0
:1011C00053FE03E00021382003F04EFE01213920B8
:1011D00003F04AFE0021392003F046FE6006040EAB
:1011E0002846691ECDB20028E3D170BD70B5044613
:1011F00008250121252003F037FE0021392003F0C6
:1012000033FE16E080202040002804D00121382041
:1012100003F02AFE03E00021382003F025FE01211F
:10122000392003F021FE0021392003F01DFE600665
:10123000040E2846691ECDB20028E3D170BD00001F
:10124000F0B585B06C48007801287CD16BA20021F4
:101250000846FFF72DFF6A490868FFF703FA04B252
:10126000224600211220FFF755FF66A200214620EA
:10127000FFF71EFF62494868FFF7F4F904B22246FF
:1012800000215820FFF746FF5FA201210020FFF751
:101290000FFF5B490869FFF7E5F904B22246012117
:1012A0001220FFF737FF59A201214620FFF700FF68
:1012B00053494869FFF7D6F904B222460121582064
:1012C000FFF728FF52A202210020FFF7F1FE4C4950
:1012D0008868FFF7C7F904B2224602211220FFF7FF
:1012E00019FF4CA202214620FFF7E2FE4449C868DC
:1012F000FFF7B8F904B2224602215820FFF70AFF8F
:1013000045A203210020FFF7D3FE45480022825E5C
:1013100003211E20FFF7FEFE42A204210020FFF75A
:10132000C7FE0221084603F095FA87003846FFF70A
:1013300033F8054600223F4BFEF7B4FF00223E4B38
:101340000191009000E054E0FFF714F9039102903E
:10135000FFF7A2F904B2224604211820FFF7DAFEB3
:1013600036A205210020FFF7A3FE3548C08802B24F
:1013700005211220FFF7CEFE23A206210020FFF751
:1013800097FE2F48008902B206211220FFF7C2FE05
:101390002CA207210020FFF78BFE2948408902B2CA
:1013A00007211220FFF7B6FE27A205214620FFF7EE
:1013B0007FFE2648008802B205215820FFF7AAFECA
:1013C00023A206214620FFF773FE22480022825EF8
:1013D00006215820FFF79EFE1FA207214620FFF797
:1013E00067FE1E480022825E07215820FFF792FE0A
:1013F00000BF00BF05B0F0BD84F0FF1F4C203A00D5
:1014000074F1FF1F52203A00544C3A0054523A00F3
:1014100046203A0042203A00447574793A000000B0
:1014200058F0FF1F4241543A2020202020206D56C2
:10143000000000000088B3400000B040504C3A006B
:10144000AEF0FF1F444C3A0052453A0064F0FF1FD3
:1014500055503A00A2F0FF1F4C4F3A00A4F0FF1F76
:1014600010B500220121232003F090FC0122114637
:10147000422003F08BFC01221146432003F086FC3E
:1014800001221146162003F081FC0122114617208B
:1014900003F07CFC01220021222003F077FC10BD28
:1014A000F0B595B004460E4617461D463046FEF789
:1014B00061FF39461390FEF7AEFEA061A069FFF709
:1014C0000FF91191109095480088FEF779FF0022DE
:1014D000934B0D910C90FFF74DF80F910E90119BCF
:1014E000109AFEF7DFFE13911290FFF735F9206096
:1014F000A069FFF7F5F8139112904900490889494E
:101500000988884204DC0021A069FEF767FF05D145
:1015100000216068FEF72EFE606079E0A069FFF7A9
:10152000DFF813911290490049087F4909888842E1
:1015300025DCA069FFF7D4F80D910C907B4800885A
:10154000FEF73EFF0022764B09910890FFF712F854
:101550000B910A900D9B0C9AFEF7A4FE119110902E
:101560006068FFF7BDF80F910E90119B109AFEF77F
:101570004FFF13911290FFF7EFF8606048E0694960
:101580000988694A1288881AFEF706FF0D910C90A7
:10159000A069FFF7A5F80391029049004908614945
:1015A0000988081A0590FEF7F7FE09910890A069CE
:1015B000FFF796F8059104905C480088FEF700FF5D
:1015C0000022574B01910090FEF7D4FF0391029047
:1015D000059B049AFEF766FE07910690099B089A00
:1015E000FEF760FE0B910A900D9B0C9AFEF7C2FF6E
:1015F000119110906068FFF773F80F910E90119B96
:10160000109AFEF705FF13911290FFF7A5F860609E
:1016100047490020085EFEF7ADFE13906168FEF7B3
:10162000DDFE06D242490020085EFEF7A3FE6060A0
:101630000FE040490020085EFEF79CFE13906168B1
:10164000FFF7A6F805D23B490020085EFEF792FEA0
:1016500060603948405D0A283AD1E169A069FEF727
:10166000DAFD13906069FFF73BF8344A344B0B9175
:101670000A90FEF717FE0F910E901398FFF730F8BF
:101680000B910A902F480088FEF79AFE2E4A2F4BA6
:1016900005910490FEF706FE0022214B079106906B
:1016A000FEF768FF099108900B9B0A9AFEF7FAFD76
:1016B0000D910C900F9B0E9AFEF7AAFE11911090BF
:1016C000FFF74AF8A060A169E161A168616100BF0C
:1016D00061682068FEF74EFD1390A168FEF74AFD91
:1016E000E0601B49E068FFF753F802D21848E06059
:1016F00006E01849E068FEF771FE01D21548E06087
:101700000D48405D401C0C4948550846405D0B287B
:1017100001D10020485515B0F0BD000098F0FF1F22
:1017200000408F409EF0FF1FA0F0FF1F9AF0FF1FA8
:10173000A2F0FF1FA4F0FF1FBCF0FF1F7B14AE47F9
:10174000E17AB43F9CF0FF1F713D0AD7A370ED3FD3
:1017500000803B4400803BC400B5A5B002210F20AF
:1017600003F078F801462290FE4802F0B9FBFE49EA
:10177000088002210D2003F06DF801462290F948FF
:10178000163002F0ADFBF849488002210E2003F02C
:1017900061F801462290F3482C3002F0A1FBF24997
:1017A000888002210C2003F055F801462290ED4874
:1017B000423002F095FBEC49C8800221072003F07B
:1017C00049F801462290E748583002F089FBE64983
:1017D00008810221062003F03DF801462290E148ED
:1017E0006E3002F07DFBE04948813D2003F0B8FAFD
:1017F000002827D0DD4800681990FEF771FFDC4A09
:10180000DC4B1B911A90FEF74DFD1F911E9001209D
:1018100003F056F8810040181990FEF7BDFDD64A36
:10182000D64B1B911A90FEF73DFD1D911C901F9BFE
:101830001E9AFEF7EDFD21912090FEF78DFFD04915
:10184000086027E0C94800681990FEF749FFC84AB8
:10185000C84B1B911A90FEF725FD1F911E90012089
:1018600003F02EF84042810040181990FEF794FDD5
:10187000C14AC24B1B911A90FEF714FD1D911C909A
:101880001F9B1E9AFEF7C4FD21912090FEF764FF76
:10189000BB490860BA480068B4490860212003F0D9
:1018A0005FFA002827D1B14840681990FEF718FF69
:1018B000AF4AB04B1B911A90FEF7F4FC1F911E909B
:1018C000002002F0FDFF810040181990FEF764FD32
:1018D000A94AAA4B1B911A90FEF7E4FC1D911C909B
:1018E0001F9B1E9AFEF794FD21912090FEF734FF76
:1018F000A349486027E09D4840681990FEF7F0FE34
:101900009B4A9C4B1B911A90FEF7CCFC1F911E909A
:10191000002002F0D5FF4042810040181990FEF7E8
:101920003BFD954A954B1B911A90FEF7BBFC1D9110
:101930001C901F9B1E9AFEF76BFD21912090FEF7D5
:101940000BFF8F4948608E484068884948608D4841
:10195000007801280CD1222003F002FA002807D1D8
:1019600089480078401C8849087001208749087020
:10197000222003F0F5F98349087084480078012893
:1019800013D10121232003F06FFA81480088401C05
:101990007F49088008460088FF212D31884204D104
:1019A00000207A4908707A4908807A48007803282C
:1019B0002CD175480078012828DD00207649488020
:1019C0000880084600887549088073484088488028
:1019D0007348007800280BD16348C0880F2807DAC5
:1019E00070A002F09DFA0021232003F03DFA0AE0E6
:1019F0006B480078002806D163480078012802DD92
:101A00006CA002F08DFA01206549087056480088E4
:101A10007D21C900884205DD53484089E1218900C4
:101A200088420BDB504840897D21C900884248DD4F
:101A30004D480088E1218900884242DA4A48C0883E
:101A40004B21090188423CDA4748008846494989C8
:101A500040181990FEF7A0FC1D911C904248008888
:101A600041494989401A2290002801DB229801E06F
:101A7000229840421790FEF78FFC0022504B19919C
:101A80001890FEF70FFC1B911A901D9B1C9AFEF7F5
:101A900071FD00224A4B1F911E90FEF703FC494A3C
:101AA000494B21912090FEF743FE0AD22E48008830
:101AB0002D494989884201DC012000E0002043498A
:101AC000C870294880887D210901884206DD2648A2
:101AD000C088884202DD01203C4908703B480078FC
:101AE0003A494978884201D1012000E000200128CC
:101AF00074D136488078002870D11B4880883449DA
:101B000088426BDD1848C088884267DD16488088A7
:101B10001549C98840181990FEF73EFC1D911C908C
:101B2000114880881049C988411A08461791FEF764
:101B300033FC0022224B19911890FEF7B3FB1B9146
:101B40001A901D9B1C9AFEF715FD00221C4B1F913D
:101B50001E90FEF7A7FB1F4A1F4B21912090FEF716
:101B6000D3FD3CE0F0F0FF1F94F1FF1F30F0FF1FAA
:101B70007814AE47E17AB43F713D0AD7A370ED3FC8
:101B800038F0FF1F6CF0FF1F6BF0FF1F6DF0FF1FA1
:101B900074F0FF1F6FF0FF1F54F0FF1F5AF0FF1F7C
:101BA0002FF0FF1F0A204C696E65206F7574210AA3
:101BB000000000000A2050697065206F6E0A000066
:101BC0000000F03FB81E85EB51B8AE3F66F0FF1F36
:101BD000FC0800009A9999999999B93F2EE02DD265
:101BE000FE488088FD49C98840181990FEF7D4FB4B
:101BF0001D911C90F9488088F849C988401A1790AF
:101C0000FEF7CAFB0022F64B19911890FEF74AFB2B
:101C10001B911A901D9B1C9AFEF7ACFC0022F04B06
:101C20001F911E90FEF73EFBEE4AEF4B2191209054
:101C3000FEF77EFD02D20120EC498870EB48407827
:101C400000280CD1E9480078012808D1E7488078BD
:101C5000012804D10020E549887001200871DF487F
:101C60008088E121C90088427EDCDC48C088884247
:101C7000FADC0020DD490870D8480088D749498936
:101C800040181590FEF788FB19911890D3480088EA
:101C9000D2494989401A1F90002801DB1F9801E0B2
:101CA0001F9840421390FEF777FB0022CC4B159112
:101CB0001490FEF7F7FA17911690199B189AFEF7F1
:101CC00059FC0022C64B1B911A90FEF7EBFAC84A4A
:101CD000C84B1D911C90FEF717FD45D8BF48808862
:101CE000BE49C98840181590FEF756FB1991189007
:101CF000BA488088B949C988401A2090002801DB79
:101D0000209801E0209840421390FEF745FB002206
:101D1000B34B15911490FEF7C5FA17911690199BC5
:101D2000189AFEF727FC0022AD4B1B911A90FEF784
:101D3000B9FAAF4AAF4B1D911C90FEF7E5FC74D881
:101D4000A6488088A549C9884018A4490988A34A9B
:101D50005289891840181590FEF71EFB19911890AA
:101D60009E4880889D4900E05FE0C98840189B49F3
:101D70000A8849895118401A2190002801DB2198CE
:101D800001E0219840421390FEF706FB0022944B9D
:101D900015911490FEF786FA17911690199B189AD0
:101DA000FEF7E8FB00228E4B1B911A90FEF77AFAA1
:101DB000914A924B1D911C90FEF7BAFC35D2874890
:101DC00040888649098940181590FEF7E5FA19916F
:101DD00018908248408881490989401A2290002839
:101DE00001DB229801E0229840421390FEF7D4FADA
:101DF00000227B4B15911490FEF754FA1791169020
:101E0000199B189AFEF7B6FB0022754B1B911A908E
:101E1000FEF748FA784A794B1D911C90FEF774FC46
:101E200003D2002071498870087170480079002839
:101E300003D16E4800786D494870714800780028D9
:101E400001D001F09CFA6F480068FEF749FC6E4A29
:101E50006E4B1F911E90FEF7DBFA21912090FEF74A
:101E60007BFC684908606A484168219101682091BB
:101E700021992098FEF78CFC02D26548006801E0A9
:101E8000634840682290FEF7EDFB01B22491604860
:101E900041681C9101681B911C991B98FEF7BBF9C6
:101EA0001D90FEF71DFC544A52425A4B1F911E9042
:101EB000FEF7F8F92191209049004908642803DDD4
:101EC0000120554908701CE0514840681C9050485A
:101ED00001681B911C991B98FEF79DF91D90FEF758
:101EE000FFFB454A52424B4B1F911E90FEF7DAF919
:101EF00021912090490049083C2802DA00204649F7
:101F00000870434840681C90414801681B911C9927
:101F10001B98FEF780F91D90FEF7E2FB364A52420D
:101F20003C4B1F911E90FEF7BDF921912090490076
:101F30004908782876DD24983C28FBDD27488088EE
:101F40002649C98840181990FEF726FA1D911C9061
:101F5000224880882149C988401A2290002801DB44
:101F6000229801E0229840421790FEF715FA0022CD
:101F70001B4B19911890FEF795F91B911A901D9B18
:101F80001C9AFEF7F7FA0022154B1F911E90FEF7E0
:101F900089F9174A174B21912090FEF7C9FB41D2CE
:101FA0002498FEF7F9F9179116902498FEF7F4F9A2
:101FB0001391129019480088FEF702FA0022184B7C
:101FC0000F910E90FEF7D6FA11911090139B129A72
:101FD000FEF768F915911490179B24E094F1FF1F08
:101FE0000000F03F9A9999999999B9BF66F0FF1F3F
:101FF000B81E85EB51B89E3F333333333333D33F71
:102000002FF0FF1F94F0FF1FFCA9F1D24D62603F3B
:1020100038F0FF1FCCCC084063F0FF1F64F0FF1FB7
:10202000000059406EE0169AFEF73CF90022F94B89
:1020300019911890FEF79EFA0022F74B1B911A9007
:10204000FEF790FA1F911E90F4490020085E1A9046
:10205000FEF790F91B90FEF743FB1D911C901F9B10
:102060001E9AFEF71FF921912090FEF715FB00B292
:10207000EB4908802498FEF78FF917911690249861
:10208000FEF78AF913911290E6480088FEF798F956
:102090000022E54B0F910E90FEF76CFA1191109013
:1020A000139B129AFEF7FEF815911490179B169A3F
:1020B000FEF7F8F80022D74B19911890FEF75AFA5C
:1020C0000022D54B1B911A90FEF74CFA1F911E90DF
:1020D000D2490220085E1A90FEF74CF91B90FEF7D9
:1020E000FFFA1D911C901F9B1E9AFEF7DBF82191B1
:1020F0002090FEF7D1FA00B2C94948800120CB49AF
:10210000087009E0C5480088C5490880C348408870
:1021100048800020C5490870C54800780A21484316
:10212000C34989784018002808D0012876D00A28A9
:1021300005D00B2801D001F012F9F8E300BFBD482B
:102140000088BC49498940181590FEF725F9199176
:102150001890B8480088B7494989401A1390FEF78B
:102160001BF90022AC4B15911490FEF79BF81791C8
:102170001690199B189AFEF7FDF90022A64B1B91A9
:102180001A90FEF78FF81F911E90AB4880880A21A5
:1021900048431B90FEF700F91D911C901F9B1E9A4F
:1021A000FEF780F821912090FEF776FA01B2239194
:1021B0000021232002F058FE9E4800889D4949894D
:1021C000411808461991FEF7E7F81D911C909948AF
:1021D000008898494989401A1790FEF7DDF80022D7
:1021E0008D4B19911890FEF75DF81B911A901D9B6D
:1021F0001C9AFEF7BFF90022874B1F911E90FEF735
:1022000051F80022134621912090FEF791FA7DD2D9
:1022100024982290002802DB229802E024E22298EF
:1022200040421B90FEF7B8F81F911E90834800882B
:10223000FEF7C6F8199118907E4801884088804AB8
:102240001278504309187B48428900897C4B1B78DF
:102250005843101808180790FEF79EF80B910A9043
:10226000744801884088764A1278504309187148AA
:1022700042890089724B1B7858431018081A059040
:10228000FEF78AF80022644B07910690FEF70AF8E1
:10229000099108900B9B0A9AFEF76CF900225E4B9D
:1022A0000D910C90FDF7FEFF11911090624800888F
:1022B0000D90FEF785F80F910E90119B109AFDF787
:1022C000F1FF159114905B48018840885C4A1278B0
:1022D00050430A18574841890089594B1B78584385
:1022E000081810180790FEF757F80B910A905148FC
:1022F00001884088524A127850430A184D48418953
:1023000000894F4B1B785843081800E09EE0101AD4
:102310000590FEF741F800223F4B07910690FDF72C
:10232000C1FF099108900B9B0A9AFEF723F900223E
:10233000394B0D910C90FDF7B5FF119110903D4870
:10234000018840883E4A127850430918394842892A
:1023500000893B4B1B785843101808180390FEF770
:102360001BF807910690334801884088344A127858
:10237000504309182F4842890089314B1B78584334
:102380001018081A0190FEF707F80022224B03915B
:102390000290FDF787FF05910490079B069AFEF7D0
:1023A000E9F800221C4B09910890FDF77BFF0D9185
:1023B0000C90214840880990FEF702F80B910A9092
:1023C0000D9B0C9AFDF76EFF0F910E90119B109ACA
:1023D000FDF768FF13911290159B149AFEF718F8F9
:1023E00017911690199B189AFDF75CFF0022154B68
:1023F0001B911A90FEF7BEF81D911C901F9B1E9A10
:10240000FDF750FF21912090FEF746F900B20E49EA
:10241000088028E10020AC400000F03F5AF0FF1F88
:1024200054F0FF1F64F0FF1F0000594062F0FF1FCF
:1024300066F0FF1F94F1FF1FAEF0FF1FBAF0FF1F01
:1024400063F0FF1F00408F40A6F0FF1F24982290EA
:10245000002801DB229801E0229840421B90FDF702
:102460009BFF1F911E90FE480088FDF7A9FF199160
:102470001890FC4801884088FB4A127850430A189B
:10248000F84841890089F84B1B7858430818101800
:102490000790FDF781FF0B910A90F2480188408870
:1024A000F14A127850430A18EE4841890089EE4BF0
:1024B0001B7858430818101A0590FDF76DFF00228D
:1024C000EA4B07910690FDF7EDFE099108900B9BF2
:1024D0000A9AFEF74FF80022E44B0D910C90FDF79D
:1024E000E1FE0122D207514011911090E04800888E
:1024F0000D90FDF765FF0F910E90119B109AFDF75F
:10250000D1FE15911490D74801884088D64A127898
:1025100050430918D34842890089D34B1B7858434C
:102520001018091808460791FDF736FF0B910A901D
:10253000CC4801884088CC4A127850430A18C948D0
:1025400041890089C84B1B7858430818111A08465E
:102550000591FDF721FF0022C44B07910690FDF77E
:10256000A1FE099108900B9B0A9AFEF703F800223E
:10257000BE4B0D910C90FDF795FE0122D207514004
:1025800011911090B74801884088B74A127850439B
:102590000A18B44841890089B34B1B78584308187E
:1025A000111808460391FDF7F7FE07910690AD4814
:1025B00001884088AC4A127850430A18A9484189DA
:1025C0000089A94B1B7858430818101A0190FDF791
:1025D000E3FE0022A54B03910290FDF763FE0591F7
:1025E0000490079B069AFDF7C5FF00229F4B0991B7
:1025F0000890FDF757FE0122D20751400D910C9033
:102600009B4840880990FDF7DBFE0B910A900D9BDB
:102610000C9AFDF747FE0F910E90119B109AFDF753
:1026200041FE13911290159B149AFDF7F1FE0122C1
:10263000D207514017911690199B189AFDF732FE58
:1026400000228C4B1B911A90FDF794FF1D911C905A
:102650001F9B1E9AFDF726FE21912090FEF71CF885
:1026600001B28548018066E57E4800887D49498938
:1026700040181590FDF790FE199118907948008840
:1026800078494989401A1390FDF786FE0022774B5E
:1026900015911490FDF706FE17911690199B189A44
:1026A000FDF768FF0022714B1B911A90FDF7FAFDB0
:1026B0001F911E906E4880880A2148431B90FDF7A9
:1026C0006BFE1D911C901F9B1E9AFDF7EBFD219147
:1026D0002090FDF7E1FF01B223910021232002F0B9
:1026E000C3FB604800885F49498941180846199131
:1026F000FDF752FE1D911C905A480088594949899E
:10270000401A1790FDF748FE0022584B1991189077
:10271000FDF7C8FD1B911A901D9B1C9AFDF72AFF1F
:102720000022524B1F911E90FDF7BCFD0022134664
:1027300021912090FDF7FCFF7ED224982290002862
:1027400001DB229801E0229840421B90FDF724FE15
:102750001F911E9042480088FDF732FE1991189093
:10276000404800883F49498840183E4949893D4AC8
:102770001289891840180790FDF70EFE0B910A90F8
:102780003848008837494988401836494989354AC8
:1027900012898918411A08460591FDF7FDFD0022AE
:1027A000324B07910690FDF77DFD099108900B9B38
:1027B0000A9AFDF7DFFE00222C4B0D910C90FDF7DD
:1027C00071FD119110902A48018808460D91FDF77E
:1027D000F7FD0F910E90119B109AFDF763FD159177
:1027E0001490204800881F49498840181D4949898C
:1027F0001C4A1289891840180790FDF7CDFD0B91EE
:102800000A9018480088174949884018154949898D
:10281000144A12898918401A0590FDF7BDFD00225F
:10282000124B07910690FDF73DFD099108900B9B17
:102830000A9AFDF79FFE00E07AE000220B4B0D9113
:102840000C90FDF72FFD1191109006480088054966
:102850004988401803494989024A128989180DE0BC
:10286000BAF0FF1F94F1FF1F63F0FF1F0000F03F5D
:10287000AEF0FF1F00408F40A6F0FF1F40180390EE
:10288000FDF78AFD07910690FE480088FD494988BA
:102890004018FC494989FB4A12898918401A01905D
:1028A000FDF77AFD0022F84B03910290FDF7FAFC48
:1028B00005910490079B069AFDF75CFE0022F24BFF
:1028C00009910890FDF7EEFC0D910C90EF484088BF
:1028D0000990FDF775FD0B910A900D9B0C9AFDF781
:1028E000E1FC0F910E90119B109AFDF7DBFC139108
:1028F0001290159B149AFDF78BFD17911690199B5A
:10290000189AFDF7CFFC0022E14B1B911A90FDF7BE
:1029100031FE1D911C901F9B1E9AFDF7C3FC219157
:102920002090FDF7B9FE01B2DA480180F7E0F7E048
:1029300024982290002801DB229801E0229840424E
:102940001B90FDF729FD1F911E90D3480088FDF7CD
:1029500037FD19911890CB480088CA49498840181A
:10296000C8494989C74A12898918411808460791F8
:10297000FDF712FD0B910A90C2480088C1494988B1
:102980004018C0494989BF4A12898918411A084626
:102990000591FDF701FD0022BB4B07910690FDF765
:1029A00081FC099108900B9B0A9AFDF7E3FD002238
:1029B000B54B0D910C90FDF775FC0122D2075140EB
:1029C00011911090B14800880D90FDF7F9FC0F911E
:1029D0000E90119B109AFDF765FC15911490A94873
:1029E0000088A84949884018A6494989A54A1289FA
:1029F000891840180790FDF7CFFC0B910A90A14869
:102A00000088A049498840189E4949899D4A1289F1
:102A10008918411A08460591FDF7BEFC00229A4B21
:102A200007910690FDF73EFC099108900B9B0A9ACE
:102A3000FDF7A0FD0022944B0D910C90FDF732FCA8
:102A40000122D2075140119110908E4800888D4983
:102A5000498840188B4949898A4A1289891840183F
:102A60000390FDF799FC07910690864800888549F8
:102A70004988401883494989824A12898918411A2C
:102A800008460191FDF788FC00227F4B03910290DC
:102A9000FDF708FC05910490079B069AFDF76AFD77
:102AA0000022794B09910890FDF7FCFB0122D20727
:102AB00051400D910C907548418808460991FDF7E9
:102AC0007FFC0B910A900D9B0C9AFDF7EBFB0F918D
:102AD0000E90119B109AFDF7E5FB13911290159B38
:102AE000149AFDF795FC0122D207514017911690D8
:102AF000199B189AFDF7D6FB0022654B1B911A9083
:102B0000FDF738FD1D911C901F9B1E9AFDF7CAFB17
:102B100021912090FDF7C0FD00B25E490880A2E53A
:102B20000121232002F0A0F95C48C07800287DD163
:102B3000544840885349098940181990FDF72CFCE6
:102B40001D911C904F4840884E490989401A1790A2
:102B5000FDF722FC00224C4B19911890FDF7A2FBC7
:102B60001B911A901D9B1C9AFDF704FD0022464BF9
:102B70001F911E90FDF796FB002213462191209095
:102B8000FDF7D6FD7CD224982290002801DB229804
:102B900001E0229840421B90FDF7FEFB1F911E9022
:102BA0003D480088FDF70CFC199118903548408885
:102BB00034490989411808460791FDF7EDFB0B914F
:102BC0000A90304840882F490989401A0590FDF73E
:102BD000E3FB00222C4B07910690FDF763FB099164
:102BE00008900B9B0A9AFDF7C5FC0022264B0D911D
:102BF0000C90FDF757FB119110902448C0880D9060
:102C0000FDF7DEFB0F910E90119B109AFDF74AFB2A
:102C1000159114901B4840881A490989401807905B
:102C2000FDF7BAFB0B910A90164800E08BE1408853
:102C300014490989401A0590FDF7AEFB0022124B9A
:102C400007910690FDF72EFB099108900B9B0A9ABD
:102C5000FDF790FC00220C4B0D910C90FDF722FB30
:102C6000119110900748408806490989401803903F
:102C7000FDF792FB079106900248408801490FE05A
:102C800059E0000094F1FF1F0000F03FAEF0FF1F7D
:102C900000408F40A6F0FF1FBAF0FF1F66F0FF1F35
:102CA0000989411A08460191FDF776FB0022FC4B89
:102CB00003910290FDF7F6FA05910490079B069A9E
:102CC000FDF758FC0022F64B09910890FDF7EAFA4F
:102CD0000D910C90F34800890990FDF771FB0B9161
:102CE0000A900D9B0C9AFDF7DDFA0F910E90119B47
:102CF000109AFDF7D7FA13911290159B149AFDF7CD
:102D000087FB17911690199B189AFDF7CBFA0022B2
:102D1000E54B1B911A90FDF72DFC1D911C901F9BFC
:102D20001E9AFDF7BFFA21912090FDF7B5FC00B285
:102D3000DE490880CDE024982290002801DB22980B
:102D400001E0229840421B90FDF726FB1F911E9048
:102D5000D7480088FDF734FB19911890D548418871
:102D6000008908180790FDF717FB0B910A90D148CE
:102D70004088D0490989401A0590FDF70DFB0022D3
:102D8000C74B07910690FDF78DFA099108900B9BB0
:102D90000A9AFDF7EFFB0022C14B0D910C90FDF755
:102DA00081FA0122D207514011911090BD48C0888C
:102DB0000D90FDF705FB0F910E90119B109AFDF7FA
:102DC00071FA15911490BB484088BA490989401896
:102DD0000790FDF7E1FA0B910A90B6484088B54993
:102DE0000989401A0590FDF7D7FA0022AC4B0791EC
:102DF0000690FDF757FA099108900B9B0A9AFDF788
:102E0000B9FB0022A64B0D910C90FDF74BFA012265
:102E1000D207514011911090A6484088A5490989D0
:102E200040180390FDF7B8FA07910690A148408832
:102E3000A0490989411A08460191FDF7ADFA00221F
:102E4000974B03910290FDF72DFA05910490079B93
:102E5000069AFDF78FFB0022914B09910890FDF730
:102E600021FA0122D20751400D910C908D48008922
:102E70000990FDF7A5FA0B910A900D9B0C9AFDF7AE
:102E800011FA0F910E90119B109AFDF70BFA139106
:102E90001290159B149AFDF7BBFA0122D2075140FC
:102EA00017911690199B189AFDF7FCF900227E4B9A
:102EB0001B911A90FDF75EFB1D911C901F9B1E9AA3
:102EC000FDF7F0F921912090FDF7E6FB01B277487C
:102ED0000180784840887749098940181590FDF7A6
:102EE0005BFA199118907348408872490989401A11
:102EF0001390FDF751FA0022694B15911490FDF7DC
:102F0000D1F917911690199B189AFDF733FB0022FF
:102F1000634B1B911A90FDF7C5F91F911E906148F4
:102F200040890A2148431B90FDF736FA1D911C90F9
:102F30001F9B1E9AFDF7B6F921912090FDF7ACFB7F
:102F400000B223900AE25B4840885A490989401838
:102F50001990FDF721FA1D911C905648408855495B
:102F60000989411A08461791FDF716FA00224C4BC1
:102F700019911890FDF796F91B911A901D9B1C9AB8
:102F8000FDF7F8FA0022464B1F911E90FDF78AF9D3
:102F90000022134621912090FDF7CAFB7ED224988F
:102FA0002290002801DB229801E0229840421B90E9
:102FB000FDF7F2F91F911E903D480088FDF700FAD9
:102FC000199118903B4840883A49098941180846A8
:102FD0000791FDF7E1F90B910A9036484088354991
:102FE0000989401A0590FDF7D7F900222C4B07916B
:102FF0000690FDF757F9099108900B9B0A9AFDF787
:10300000B9FA0022264B0D910C90FDF74BF9119166
:1030100010902448C18808460D91FDF7D1F90F9111
:103020000E90119B109AFDF73DF9159114902148CF
:1030300040882049098940180790FDF7ADF90B91A8
:103040000A901C4840881B490989401A0590FDF7E1
:10305000A3F90022124B07910690FDF723F909917D
:1030600008900B9B0A9AFDF785FA00220C4B0D91F4
:103070000C90FDF717F9119110900E4840880D49FA
:10308000098940180390FDF787F9079106900948D0
:10309000408808490989401A01900DE054E0000079
:1030A0000000F03FAEF0FF1F00408F40A6F0FF1F72
:1030B000BAF0FF1F94F1FF1FFDF76EF90022F84BE5
:1030C00003910290FDF7EEF805910490079B069A94
:1030D000FDF750FA0022F24B09910890FDF7E2F853
:1030E0000D910C90EF48018908460991FDF768F9A8
:1030F0000B910A900D9B0C9AFDF7D4F80F910E904E
:10310000119B109AFDF7CEF813911290159B149A0B
:10311000FDF77EF917911690199B189AFDF7C2F8E2
:103120000022E14B1B911A90FDF724FA1D911C908F
:103130001F9B1E9AFDF7B6F821912090FDF7ACFA7F
:1031400000B2DA490880CFE024982290002801DB01
:10315000229801E0229840421B90FDF71DF91F9133
:103160001E90D3480088FDF72BF919911890D1488B
:103170004088D0490989411808460791FDF70CF9A4
:103180000B910A90CB484088CA490989401A05909A
:10319000FDF702F90022C24B07910690FDF782F875
:1031A000099108900B9B0A9AFDF7E4F90022BC4BA9
:1031B0000D910C90FDF776F80122D2075140119144
:1031C0001090B848C0880D90FDF7FAF80F910E9056
:1031D000119B109AFDF766F815911490B548408838
:1031E000B449098940180790FDF7D6F80B910A9069
:1031F000B0484088AF490989401A0590FDF7CCF8DE
:103200000022A74B07910690FDF74CF80991089012
:103210000B9B0A9AFDF7AEF90022A14B0D910C9081
:10322000FDF740F80122D207514011911090A148BA
:103230004088A049098940180390FDF7ADF807912F
:1032400006909C4840889B490989401A0190FDF7E7
:10325000A3F80022924B03910290FDF723F8059109
:103260000490079B069AFDF785F900228C4B099183
:103270000890FDF717F80122D20751400D910C90EC
:103280008848018908460991FDF79AF80B910A9040
:103290000D9B0C9AFDF706F80F910E90119B109A5A
:1032A000FDF700F813911290159B149AFDF7B0F8F2
:1032B0000122D207514017911690199B189AFCF7DA
:1032C000F1FF0022784B1B911A90FDF753F91D91E5
:1032D0001C901F9B1E9AFCF7E5FF21912090FDF7A3
:1032E000DBF900B271490880724840887149098948
:1032F00040181590FDF750F8199118906D484088C6
:103300006C490989411A08461391FDF745F80022D6
:10331000634B15911490FCF7C5FF17911690199BFC
:10332000189AFDF727F900225D4B1B911A90FCF7C4
:10333000B9FF1F911E905B4840890A2148431B90AA
:10334000FDF72AF81D911C901F9B1E9AFCF7AAFFFF
:1033500021912090FDF7A0F900B2239000BF00BF9B
:10336000524841882398401A01B250488180008811
:103370004E498988401800B24C49C8803CE0002082
:103380004A49C8804B4800884A49498940181590E5
:10339000FDF702F819911890464800884549498977
:1033A000411A08461391FCF7F7FF00223C4B159198
:1033B0001490FCF777FF17911690199B189AFDF758
:1033C000D9F80022364B1B911A90FCF76BFF1F9126
:1033D0001E90344880880A2148431B90FCF7DCFF8C
:1033E0001D911C901F9B1E9AFCF75CFF2191209061
:1033F000FDF752F900B223902C49239848802E49BA
:103400000020085E294906228A5E801AAF218900C1
:10341000884206DD28480088401A00B22349C88047
:1034200010E025490020085E204906228A5E801AA5
:103430002249884206DA204800884942401800B2F2
:103440001A49C8801E4800681D90FDF749F91D4AB9
:103450001D4B1F911E90FCF725FF21912090FDF739
:103460007BF92290144800881049C988401A01B29B
:10347000002321911548229AFEF712F80E490220E6
:10348000085E0A4906228A5E8018AF2189008842B8
:103490001EDD09484088081A00B20449C88027E0A8
:1034A0000000F03FAEF0FF1F00408F40A6F0FF1F6E
:1034B000BAF0FF1F94F1FF1F54F0FF1F44FDFFFF00
:1034C00038F0FF1FCDCCCCCCCCCC0840A0F1FF1FF6
:1034D00067490220085E674906228A5E80186649AD
:1034E000884205DA62484088081A00B26149C880FB
:1034F000624840681D90FDF7F3F8614A614B1F91E7
:103500001E90FCF7CFFE21912090FDF725F9229027
:10351000574840885749C988401801B20123219172
:103520005948229AFDF7BCFF5848C16822910021F2
:103530002298FDF72DF911D85448C0682190FDF765
:1035400091F801B20A4622910221084601F038FAA8
:1035500000220321022001F033FA11E000220221AF
:10356000084601F02DFA4948C0682190FDF77AF825
:1035700000B241420A4622910321022001F020FAC2
:103580004148C06800212290FDF702F911D83E4859
:10359000C0682190FDF766F801B20A462291042125
:1035A000022001F00DFA00220521022001F008FAA4
:1035B00011E000220421022001F002FA3248C06822
:1035C0002190FDF74FF800B241420A4622910521B1
:1035D000022001F0F5F92E48007807282ED12D4859
:1035E00000882290FCF7D1FE2B49086029484189C8
:1035F00008462291FCF7C9FE274948602548818882
:1036000008462291FCF7C1FE234988602148C18801
:1036100008462291FCF7B9FE1F49C8601D48418841
:1036200008462291FCF7B1FE1B490861194801893F
:1036300008462291FCF7A9FE174948611448007812
:10364000401C13490870084600780B2801D100205F
:103650000870002001F02CF9012001F029F90F4831
:10366000C068012108430D49C86025B000BD0000B5
:1036700054F0FF1FA6F0FF1F44FDFFFF38F0FF1FAF
:10368000CDCCCCCCCCCC0840C8F1FF1FA0F1FF1FA3
:103690006FF0FF1F94F1FF1F74F1FF1F00710340D3
:1036A00010B50B480168002001F0A0FC0121162094
:1036B000FDF7FEFB1620FDF7F1FB05480168012030
:1036C00001F094FC03211720FDF7F2FB10BD000070
:1036D0000CF0FF1F7CB504460D460BA0006801905E
:1036E0000AA000680090022201A9012001F09EFDBD
:1036F0002A462146012001F099FD02226946012057
:1037000001F094FD7CBD000003FC0000FC03000000
:1037100000B501F0B7F801200006124948621020F8
:103720001149487096201149087022200E490870EE
:1037300000BF0D480079102108400028F9D100BFD2
:1037400009480079402108400028F9D000BF064808
:1037500000790C2108400028F9D10C20014948606B
:1037600000BD0000008004400040064000500640BC
:1037700010B501F08FFA72B6FDF762F9FDF748F95E
:10378000FDF74AFBFFF78CFFFDF712FC0020FDF769
:10379000D9FBFDF765FEFDF70DFB62B610BD00001D
:1037A000F0B585B0ED49022001F09AFCEB480078B5
:1037B00064287DD006DC25287BD02B287AD03F28B2
:1037C00052D104E0672876D07328F9D14DE0022168
:1037D000084601F03FF886003046FCF7DDFD044660
:1037E0000022DF4BFCF75EFD0022DE4B01910090D2
:1037F000FCF7C0FE02460B4603910290DAA000F0EF
:103800008FFBDDA000F08CFBDDA000F089FBE2A0C7
:1038100000F086FBE2480388E2480288E24801881B
:10382000E2A000F07DFBE8A000F07AFBE948838885
:1038300042880188E8A000F073FBEEA000F070FB66
:10384000E44843890289C188EDA000F069FBF3A038
:1038500000F066FBF4480188F4A000F061FBF74833
:103860000188F7A000F05CFB89E20020F84948805D
:10387000088008460088F7490880F5484088488055
:10388000F5A000F04DFB0120F5490870F5480088CF
:10389000FCF77BFD07463946F3480068FCF7C3FC9C
:1038A0000446FCF71DFF05462A460B46EFA003E041
:1038B00036E043E03BE021E000F032FBEE480068F8
:1038C000FCF70EFF044622460B46ECA000F028FB56
:1038D000002005E000218200EC4B9950411CC8B249
:1038E0000528F7DB0020E0490860E3490860DD496E
:1038F00008800021232001F0B7FA40E2FA20D449E1
:103900000880488008460088D2490880D04840880E
:103910004880DFA000F004FB0020D14908702EE2AF
:103920000120DC490870DCA000F0FAFA27E202204E
:10393000D8490870DCA000F0F3FA20E2D5480078FE
:10394000012869D1DD48DE490978405C02280DD1A3
:10395000DC48417800780A2250430818504300B2EE
:10396000D74909784900D84A50520CE0D7A000F056
:10397000D7FA0020D34948700870D04948700870C1
:10398000C4490870FBE10020CE4948700870CC485B
:103990000078002806D10120C9490870CDA000F0A8
:1039A000BFFA39E0CF480078012806D1C648008820
:1039B000404200B2A649088003E0C3480088A449F9
:1039C0000880C8484078012806D1BF484088404256
:1039D00000B29F49488003E0BB4840889C4948802A
:1039E0009B4800889B4908809948408848809848AF
:1039F0000222825E0021415EBBA000F091FA00200D
:103A0000AE4948700870A3490870AD490870B549BF
:103A100048700870924908709E480078022885D145
:103A2000A8484079002836DBA6484079052832DCD2
:103A3000A248807805282EDC0020A2494979490057
:103A4000644A50529D488478012513E09D4840798E
:103A500040006049095A601E9A4A105C6843081881
:103A60001146497949005B4A5052601EC4B20A208F
:103A7000684385B2002CE9DC564883884288018877
:103A80009EA000F04DFA534843890289C188A0A046
:103A900000F046FA64E18B48407970280FD08948DD
:103AA000407969280BD087484079622807D085483B
:103AB0004079522803D08348407953284DD17F481C
:103AC0008078052849DC00267C48847801250AE0B6
:103AD000601E7C49085C6843801986B2601EC4B2CF
:103AE0000A20684385B2002CF2DC764840796228CF
:103AF00021D004DC522829D053280FD124E1692891
:103B00000DD070280AD1284806802548038825480A
:103B100002882548018883A000F002FA1BE12148B1
:103B200006801F4803881F4802881F4801887DA01F
:103B300000F0F6F90FE11A48068003881948028858
:103B40001948018877A000F0EBF904E136480680B7
:103B500001887AA000F0E4F9FDE0FEE02EF0FF1FFE
:103B6000000014400000B040626174746572793ADC
:103B7000252E336620560A006F726465723A200063
:103B800053746F703A732020476F3A672020447552
:103B900074793A640A00000073706565643A200025
:103BA0009CF0FF1F9AF0FF1F98F0FF1F503A2B70F8
:103BB0003D25642020493A2B693D256420443A2B59
:103BC000623D25640A0000007377657276653A20CD
:103BD00000000000AEF0FF1F503A2B503D2564203E
:103BE00050543A2B543D256420443A2B443D2564DF
:103BF0000A00000069736C616E643A2000000000E6
:103C0000503A2B4C3D25642050543A2B413D2564BD
:103C100020443A2B4E3D25640A0000006F72746800
:103C200065723A200000000064F0FF1F7265647541
:103C300063653A2B523D256420000000BAF0FF1F57
:103C400073705F636F653A2B533D2564000000007D
:103C500054F0FF1F5AF0FF1F53544F500A0000004A
:103C60002FF0FF1F90F0FF1F8CF0FF1F0A20442849
:103C700078293A256600000094F0FF1F0A20746935
:103C80006D653D256620730A0000000074F1FF1F7A
:103C9000474F0A002DF0FF1F6C6566742064757431
:103CA000792069733A000000706172616D65746516
:103CB000722074797065733A0000000050F0FF1FA5
:103CC0002CF0FF1F4AF0FF1F5EF0FF1F6572726F3E
:103CD00072210A00726967687420647574792069BA
:103CE000733A000048F0FF1F647574796C3A2564DC
:103CF0002C64757479723A25640A000050203D25C1
:103D0000642C5054203D25642C44203D25640A0039
:103D1000504C3D25642C50744C3D25642C444C3D46
:103D200025640A004B5F503D25642C4B5F493D25BF
:103D3000642C4B5F443D256400000000726564758F
:103D400063653D25640000005A48068001885AA03A
:103D500000F0E6F800BF00BF02E05A4800F0E0F8CB
:103D6000002004E00021584A1154411CC8B2062822
:103D7000F8DB0020554988705549087000BF00BF26
:103D800053480078012802D0022829D129E051485F
:103D9000007830281BDB4F480078392817DC4B4867
:103DA0004D490978405C022811DA4A4800783038D9
:103DB0004649494A1278895C434A50544348464927
:103DC0000978405C401C4149434A12788854414874
:103DD00000782D2804D1012140483F4A12788154AF
:103DE00064E03C48007852283ED00CDC4C2823D0BC
:103DF00004DC412824D044283ED119E04E2823D0A9
:103E0000502839D10CE062282AD004DC53282FD066
:103E1000542831D108E069281ED070282CD117E031
:103E200000202949487127E001202749487123E0F3
:103E30000220254948711FE00320234948711BE0F7
:103E400004202149487117E005201F49487113E0FB
:103E500070201D4948710FE069201B4948710BE033
:103E600062201949487107E052201749487103E060
:103E700053201549487100BF00BF1648007830280C
:103E800013DB1448007839280FDC104880780528A7
:103E90000BDA1048007830380C4989780A4A5054B7
:103EA0000A488078401C0949887000BF00BF05B0EF
:103EB000F0BD0000BAF0FF1F73705F636F653D25B2
:103EC00064000000CC3C00004AF0FF1F50F0FF1FD0
:103ED0002DF0FF1F2EF0FF1F2CF0FF1F48F0FF1FDB
:103EE00070B504460D460026A58200200CE0411C5A
:103EF0004900615A4200A1524100615A074A125CCE
:103F000051438E19411CC8B20A28F0DB0348817A5C
:103F10003046FCF7F3F880B270BD0000DC5A0000B8
:103F20000FB410B503A9044B044A029800F0E0F85E
:103F300010BC08BC04B018479D480000C0F0FF1F2B
:103F40002021020C01D010211046020A01D0104697
:103F50000839020901D01046091F820801D0104615
:103F6000891E420801D0881E7047081A704730B475
:103F70007446641E2578641CAB4204D3635D5B0009
:103F8000E31830BC18471D46F8E7002001E001C1E6
:103F9000121F002AFBD17047F0B51FB484B00798F8
:103FA0000699020D014314D04A484B491018484362
:103FB00005140F9801280E981CD0281A401C0024C4
:103FC000464E4749009401910290002814DA474276
:103FD00027E00F98012443A3012808D0002104986A
:103FE0000F9A84600360C260416009B0F0BD0E9812
:103FF000C143F4E74042E2E7074612E0F80707D082
:104000002246334601990098FCF74CF90191009043
:104010002246334610461946FCF744F904460E463C
:104020007F10002FEAD10298019B0028009A07997F
:10403000069802DAFCF736F901E0FCF79BFA044631
:104040000E460022284BFCF773FB03D80020C04328
:10405000014607E00022254B20463146FCF7D8F9FF
:10406000FCF7A4FC102409E0002C0ADB0A22002340
:10407000FCF798FB059B30321A55641E02460A4332
:10408000F2D11122641C059B121B1C190F9B012BE2
:1040900003D0012308430ED10AE0084304D01120C5
:1040A0000E9000200F9084E70E98151A6D1E0BE0FD
:1040B0000E98824202DD00236D1C03E0824201DA89
:1040C00000236D1E002BEED004980F998260C16012
:1040D00030C08AE701FCFFFF104D000000002440C3
:1040E0000000F03F300000000000F0430000E03F1F
:1040F000FFB597B00646002518E2252877D10024A1
:104100002746FD49049400E00443761C32780120E0
:10411000203A90400842F7D130782A280ED0022267
:10412000307801463039092916D804990A235943B1
:10413000303940181443761C0490F1E7189802C8EF
:1041400004911890002904DA0120400304434842F6
:10415000049002200443761C30782E2814D10420C9
:1041600004437078761C2A2809D11898761C80C8D8
:10417000189009E00A214F43303FC719761C307868
:10418000014630390929F5D930786C2810D006DC81
:104190004C281AD068280ED06A2817D104E0742859
:1041A00013D07A2812D110E00120400504430CE01E
:1041B0000121090501E0032109050C4371788142C1
:1041C00003D1012000052418761C761C307811904C
:1041D00066280BD013DC58287DD009DC00287BD062
:1041E0004528F6D04628F4D047281AD1A5E118E092
:1041F000632835D0642870D0652812D19DE17028DD
:104200006CD008DC6728F1D069287BD06E280DD0EF
:104210006F2806D1BAE073282ED0752871D078287F
:1042200059D01A9A199990476D1C7EE16002400F8F
:10423000022809D003280DD00428189801680DD051
:104240000D60001D189070E11898EA1701680D6064
:104250004A60F6E7189801680D80F2E70D70F0E704
:1042600018986A4601781172001D1890002050724B
:1042700002A80090012005E0189802C818900020BC
:104280000091C04361070DD5002101E00199491C4F
:104290000191B94212DA8142F8DB009A515C00299F
:1042A000F4D10BE0002101E00199491C0191814208
:1042B000FADB019A0099895C0029F5D101990498EB
:1042C0001A9B471A21463846199A00F097FA019925
:1042D000401945180BE04FE02CE113E04EE0009848
:1042E00000990078491C00911A9A199990470198F1
:1042F000401E0190401CF2D1214638461A9B199A63
:1043000010E137E00A200021009001916002410F86
:10431000022907D0189A01CA1892C2179446032995
:1043200008D00AE01898C01DC108C90005C9189135
:10433000944607E000B2C2179446042902D140B265
:10434000C1178C4600226146944506DA0A460021D0
:10435000404291418C462D2102E0210504D52B21BC
:104360006A461173012103E0E10701D02021F7E73C
:10437000029155E00A200AE0102008E01020009089
:104380000021042004430191082703E008200021B4
:10439000019100906002410F022907D0189A01CACA
:1043A000189200229446032908D008E01898C01DEE
:1043B000C108C90005C91891944603E080B20429D8
:1043C00000D1C0B200210291210729D5119970298D
:1043D00006D0009A1021019B4A401A4305D00EE0F6
:1043E00040216A461173012108E06146014306D06D
:1043F00030216A4611731199517302210291009A7A
:104400000821019B4A401A430AD16146014301D168
:10441000610705D530216A46117301217F1E029183
:104420001199582904D035A10E910DA90D910DE0D7
:1044300037A1F9E76146019B009AFCF7B3F90E9B9F
:104440008C469B5C0D9A521E0D921370614601437F
:10445000F0D10D9805A9081A20300190600703D506
:1044600001200004844300E001270198874201DD18
:10447000381A00E0002001990090411802980918AC
:104480000498401A0490E00306D421461A9B199A16
:10449000049800F0B3F94519002706E003A81A9A1A
:1044A000C05D199990476D1C7F1C02988742F5DB0F
:1044B000E0030CD521461A9B199A049800F09EF946
:1044C000451904E01A9A3020199990476D1C0099FB
:1044D000481E00900029F5DC08E00D980D99007841
:1044E000491C0D911A9A199990476D1C0199481E03
:1044F00001900029F1DC63E10928010030313233F9
:10450000343536373839616263646566000000000F
:1045100030313233343536373839414243444546F9
:104520000000000000F05AF94519761C3078002888
:1045300000D0E2E528461BB0F0BD600700D4062796
:104540001898C01DC108C90048680A680831C30F1F
:10455000DB071891190001D09CA108E0210501D5C5
:104560009BA104E0E10701D09AA100E09AA14300D9
:1045700011985B08109165280CD006DC452809D0FD
:1045800046281DD0472841D141E0662818D0672829
:104590003CD13CE00021112F01DB112000E0781C10
:1045A0000191009008A911A8FFF7F6FC1399059155
:1045B0000021119A15927F1C12980197009150E0EA
:1045C0000120C00703900120019008A9009711A8BD
:1045D000FFF7E2FC139A149905920022119B0092B6
:1045E00012981593059A0192002901D0104602E015
:1045F000791C40180190381A01D5019804E0404216
:10460000401E0090781C0190C01B029043E0012FD7
:1046100000DA01270021112F01DD112000E03846CA
:104620000191009008A911A8FFF7B6FC1399059114
:10463000119A0021129815920091019721070CD42C
:104640000599B94201DB019900E00191012904DDDE
:10465000159A491E515C302906D0B84201DA011D75
:1046600005DA0121029115E00199491EEDE70028C4
:1046700005DC0099411800910199091A03E0019A9B
:10468000411C914200DD01910099401A401C0290AA
:104690000120C0070390200706D4029901988142A7
:1046A00002DB0020C043029000206946C87707AFB4
:1046B000012103980337C907884224D002201190B2
:1046C0002B201290039800280CDA404203902D20F2
:1046D000129007E00A210398FBF710FD30317F1E8E
:1046E000039039701199481E11900029F2DC03984B
:1046F0000028EFD1791E12980870307820210840E8
:104700004530BF1E387006A8C01BC01D039010980E
:104710000078002800D00120019941180298C017A4
:104720000918039809180498401A401E0490E003E1
:1047300006D421461A9B199A049800F05FF845198F
:1047400010980078002803D01A9A199990476D1C88
:10475000E00324D521461A9B199A049800F04EF8DC
:1047600045191CE00098002807DB0099059888424D
:1047700003DD1598405C199901E0199930201A9AC7
:10478000904700986D1C401C00900298401E0290BB
:10479000002804D11A9A2E20199990476D1C01996E
:1047A000481E01900029DDDC05E038781A9A7F1C4C
:1047B000199990476D1C0399481E03900029F4DC59
:1047C00021461A9B199A0498ACE600002D000000BF
:1047D0002B0000002000000000000000F8B5044697
:1047E00000251E461746880404D405E039462020DB
:1047F000B0476D1C641EF9D52846F8BDFFB50446C8
:10480000002581B01E46C80301D5302700E02027CF
:10481000880404D505E038460399B0476D1C641E32
:10482000F9D5284605B0F0BD08494969012252076B
:104830001143064A516106498969012282401143A8
:10484000034A9161012151607047000000800440DB
:1048500000B00340024688000C231840084B9860C3
:10486000D006C00E186000BF0548006880231840BD
:104870000028F9D0024800690005000D70470000CB
:1048800000B0034003480449888001204870232079
:104890000870704703E800000020054030B504466A
:1048A0000D46E1B2022000F0D1FC204630BD0000F0
:1048B00000218200014B9A5851607047AC520000B1
:1048C00001468800024A1058406880B270470000D4
:1048D000AC52000010B50446204600F019F8A000C4
:1048E0000A4908580068A100084A51580860A00009
:1048F00011460858006818210843A1005158086063
:104900000020A1005158486010BD0000AC520000CA
:1049100010B50446002C04D0012C1AD0022C48D12A
:104920002FE0254840692021084323494861084673
:10493000C0680321090688431F49C860202000F091
:1049400081FB1D48C0680121090608431A49C86057
:104950002FE019484069402108431749486108463B
:10496000C0680321890688431349C860272000F0E6
:1049700069FB1148C0680121C90608430E49C86097
:1049800017E00D484069802108430B4948610846FB
:10499000C0680321090788430749C8600020074908
:1049A000C860052000F04EFB0348C0680249C8609B
:1049B00000BF00BF10BD00000080044040A00340C5
:1049C000F8B504460F461646002C04D0012C0ED034
:1049D000022C24D117E06100164A515A491C714338
:1049E00008467D21C900FBF789FB054618E06100F8
:1049F000104A515A491C714308467D21C900FBF7F2
:104A00007DFB05460CE061000A4A515A491C71437E
:104A100008467D21C900FBF771FB054600E000BF99
:104A200000BFA000044908580C30F9004018456048
:104A3000F8BD000010F0FF1FAC520000FFB583B0BE
:104A400004460E463146204600F08AF84148006888
:104A50007D21C900484302900299080C0599FBF793
:104A60004DFB0546002701E0781CC7B228463841B7
:104A70000128F9DA072F01DD07B0F0BD0299F940EE
:104A800008460599FBF73AFB85B2600032490D52A2
:104A9000002C04D0012C0ED0022C24D117E0294682
:104AA000491C069A514308467D21C900FBF726FBA5
:104AB00080B2019018E02946491C069A51430846E5
:104AC0007D21C900FBF71AFB80B201900CE029465A
:104AD000491C069A514308467D21C900FBF70EFB8D
:104AE00080B2019000E000BF00BFA0001B49085841
:104AF0008560A00008580C30F10041580420814323
:104B0000A000164A10580C30F20081502821A00055
:104B1000124A10580C30F20081507807400F0830CC
:104B2000A1000E4A51580860022C03D10020A100B8
:104B30005158C864A000094A10580C30F20080187F
:104B4000019941600020A100044A5158486000BF0B
:104B500092E7000004F0FF1F10F0FF1FAC520000AE
:104B600000B5002804D001281FD002281CD139E04C
:104B7000474A526920231A43454B5A61002902D003
:104B8000012910D107E0424AD268FF2301339A433A
:104B90003F4BDA6007E03E4AD26801235B029A434A
:104BA0003B4BDA6000BF00BF6FE0394A52694023D7
:104BB0001A43374B5A61002902D0012910D107E06E
:104BC000334AD26801239B021A43314BDA6007E073
:104BD0002F4AD2680123DB029A432D4BDA6000BFD3
:104BE00000BF52E02A4A526980231A43284B5A6177
:104BF0000B00FFF7BCF90604111E2B384048244A6D
:104C0000126992089200224B1A611A461269012316
:104C10001A431F4B1A6136E01D4A12690C239A434E
:104C20001B4B1A611A46126908231A43184B1A6162
:104C300029E0174A126930239A43154B1A611A4624
:104C4000126920231A43124B1A611CE0104A1269A0
:104C5000C0239A430E4B1A611A46126980231A43E5
:104C60000B4B1A610FE00A4A1269FF2301331A4302
:104C7000074B1A6107E0064A126901235B021A43D7
:104C8000034B1A6100BF00BF00BF00BF00BD0000A2
:104C90000080044000B587B01822294901A8FBF71D
:104CA00057FA2848284908602848007838221040D8
:104CB000C008401D400001AA115A23480068FBF7B4
:104CC0001DFA2149086021484078E022104040093F
:104CD000400001AA115A1C480068FBF70FFA1A4954
:104CE00008601B48406A032212071040000F411C55
:104CF00015480068FBF702FA164908601448406A34
:104D0000012212061040000E411C12480068FBF7F9
:104D1000F5F9114908600E48406A01221205104059
:104D2000000D411C08480068FBF7E8F90B490860D2
:104D3000E1214902022000F0E5F907B000BD0000C2
:104D4000945200000080380100F0FF1F0040064030
:104D50000080044008F0FF1F0CF0FF1F04F0FF1F4D
:104D60000CB501464B110193CB06DB0E0093684650
:104D700000798000044B1858026968460378104691
:104D8000D840C007C00F0CBDB85200003CB5034668
:104D90005D110195DD06ED0E0095002A00D001227F
:104DA000002925D16C462479A4002E4D2C59A069E8
:104DB0006C4625780124AC400546A54328466C4640
:104DC0002479A400274D2C59A0616C462479A400B5
:104DD0002C5960696C4625780124AC400546A543F2
:104DE00028466C462479A4001E4D2C59606137E09A
:104DF0006C462479A4001B4D2C59A0696C4625787B
:104E00000124AC4020436C462479A400154D2C5954
:104E1000A0616C462479A4002C5960696C46257801
:104E20000124AC4020436C462479A4000D4D2C593C
:104E300060616C462479A4002C5920686C46257862
:104E40000124AC400546A54328466C462578144607
:104E5000AC4020436C462479A400024D2C592060BC
:104E60003CBD0000B85200001CB544110194C406BA
:104E7000E40E00946B461C780123A3401A460029D7
:104E800006D06B461B799B00054CE3585A6005E041
:104E90006B461B799B00024CE3589A601CBD0000D6
:104EA000B8520000F8B506460D467411F706FF0E1D
:104EB000002C07D1354840690121090608433349D0
:104EC000486106E0314840690121490608432F49FD
:104ED0004861A0002E490858806802218843A1003B
:104EE0002B4A51588860002D01D0022D0BD1A00013
:104EF0002749085840680121B9408843A100244A45
:104F0000515848600AE0A000214908584068012132
:104F1000B9400843A1001E4A51584860304600F08D
:104F200091F8A0001A49085800680121B9400843C7
:104F3000A100174A51580860002C06D11548806816
:104F4000242108431349886005E013488068242120
:104F5000084311498860002D01D0012D05D10020A2
:104F6000A1000B4A5158886004E00120A100084AC2
:104F700051588860A00006490858806832210843CB
:104F8000A100034A51588860F8BD00000080044029
:104F900018F0FF1F0090074000A00740FEF7E8FB55
:104FA0001AE0FBF761FD0D48007800280BD10C4892
:104FB0000078012802D100200949087009480088BA
:104FC000401C0849088020210748FEF783FB0A207F
:104FD00000F078F8FCF734F9E3E700002FF0FF1F4A
:104FE00085F0FF1F90F0FF1F74F1FF1F10B5124AEC
:104FF000526902231A43104B5A6100220F4B1A6068
:105000000F4A0301D1500301D218D26801231A4379
:105010000B4B04011B19DA60094A0301D21892688C
:1050200053085B00064A0401121993600323044AE3
:1050300004011219936010BD008004400070034009
:105040000071034010B54211C106C90E002A04D0F8
:10505000012A0AD0022A18D10FE00D4B9B680124C7
:105060008C4023430A4CA3600FE0094BDB6801240A
:105070008C402343064CE36007E0054B1B69012489
:105080008C402343024C236100BF00BF10BD0000D1
:1050900000900440002800D170470021084A1161A7
:1050A00011464861002191610521116100BF044949
:1050B00009690122120411400029F8D000BFEBE772
:1050C00000E000E000B5034603E004480068FFF795
:1050D000E1FF18465B1E0028F7D100BD08F0FF1F56
:1050E00000BF8200064B9A58127920231A40002AEA
:1050F000F7D08200024B9A58D2790A7070470000AC
:1051000020F0FF1FF8B504460E46204600F056F882
:10511000A00027490858C0780C218843A100244AE0
:105120005158C870A000114608588078A100515805
:105130008870204800687D21C9004843009000998C
:1051400009090A22514308463146FAF7D7FF471D9D
:105150000A213846FAF7D2FF05461748854200D99A
:105160000546A00012490858007840094001A100F6
:105170000F4A51580870A000114608580078E904F9
:10518000C90E0843A10051580870A10051584D7034
:10519000A00011460858C0780C210843A1005158BE
:1051A000C870009908092946FAF7A8FFF8BD000061
:1051B00020F0FF1F0CF0FF1FFF1F0000002804D08D
:1051C000012810D002282CD11CE01749496901227E
:1051D00012051143144A51611146C9688022914356
:1051E000114AD1601DE0104949690122520511435D
:1051F0000D4A5161114609690122120311430A4AFD
:1052000011610EE008494969012292051143064ADD
:10521000516111460969012252031143024A116189
:1052200000BF00BF704700000080044070B5064614
:105230000C46154604E02178304600F007F8641C5F
:1052400028466D1E0028F6D170BD000000BF820008
:10525000054B9A58127980231A40002AF7D0820011
:10526000014B9A58D171704720F0FF1F10B50446CA
:10527000A00007490858C07820210843A100044A2B
:105280005158C87020460C3040B2FBF7FDFD10BDF0
:1052900020F0FF1F010002000400080010002000A1
:1052A0004000800000010002000400000080034074
:1052B0000090034000A00340000000F8400000F808
:1052C000800000F80000000000000000002F000037
:1052D00000000700070000147F147F1400242A7FB9
:1052E0002A12006264081323003649552250000038
:1052F0000503000000001C224100000041221C00A8
:105300000014083E08140008083E0808000000A029
:105310006000000808080808000060600000002025
:1053200010080402003E5149453E0000427F400003
:10533000004261514946002141454B310018141289
:105340007F10002745454539003C4A494930000156
:105350007109050300364949493600064949291EA5
:105360000000363600000000563600000008142207
:105370004100001414141414000041221408000207
:105380000151090600324959513E007C1211127C2C
:10539000007F49494936003E41414122007F414159
:1053A000221C007F49494941007F09090901003E4B
:1053B0004149497A007F0808087F0000417F410089
:1053C000002040413F01007F08142241007F4040FF
:1053D0004040007F020C027F007F0408107F003EE7
:1053E0004141413E007F09090906003E4151215ECD
:1053F000007F091929460046494949310001017FCA
:105400000101003F4040403F001F2040201F003F5F
:105410004038403F00631408146300070870080711
:1054200000615149454300007F41410000552A5524
:105430002A55000041417F0000040201020400409F
:1054400040404040000001020400002054545478C1
:10545000007F4844443800384444442000384444E1
:10546000487F00385454541800087E09010200187F
:10547000A4A4A47C007F080404780000447D4000BC
:10548000004080847D00007F102844000000417FA0
:105490004000007C04180478007C0804047800387C
:1054A0004444443800FC242424180018242418FC04
:1054B000007C0804040800485454542000043F446D
:1054C0004020003C4040207C001C2040201C003C30
:1054D0004030403C004428102844001CA0A0A07C80
:1054E000004464544C4414141414141400000000B8
:1054F000000000000000000000000000000000F8B4
:1055000000000000000000333000000000100C0616
:10551000100C0600000000000000000040C07840B1
:10552000C0784000043F04043F040400007088FC7D
:1055300008300000001820FF211E0000F008F000D5
:10554000E018000000211C031E211E0000F0088846
:10555000700000001E2123241927211010160E00B0
:10556000000000000000000000000000000000E05B
:105570001804020000000007182040000002041870
:10558000E00000000040201807000000404080F0CC
:10559000804040000202010F01020200000000F002
:1055A000000000000101011F0101010000000000D6
:1055B0000000000080B0700000000000000000004B
:1055C00000000000000101010101010100000000D4
:1055D000000000000030300000000000000000006B
:1055E00080601804006018060100000000E0100848
:1055F0000810E000000F102020100F00001010F81D
:10560000000000000020203F20200000007008085B
:1056100008887000003028242221300000300888DB
:10562000884830000018202020110E000000C02003
:1056300010F8000000070424243F240000F8088824
:10564000880808000019212020110E0000E01088B1
:1056500088180000000F112020110E0000380808E3
:10566000C83808000000003F0000000000708808F3
:1056700008887000001C222121221C0000E0100874
:105680000810E0000000312222110F00000000C0CD
:10569000C00000000000003030000000000000806A
:1056A000000000000000806000000000000080405A
:1056B0002010080000010204081020004040404073
:1056C00040404000040404040404040000081020C6
:1056D000408000000020100804020100007048080B
:1056E0000808F0000000003036010000C030C82873
:1056F000E810E0000718272423140B000000C0382E
:10570000E0000000203C23020227382008F88888A7
:1057100088700000203F202020110E00C0300808B3
:1057200008083800071820202010080008F808088A
:105730000810E000203F202020100F0008F8888883
:10574000E8081000203F20202320180008F888884F
:10575000E8081000203F200003000000C0300808C7
:105760000838000007182020221E020008F8080050
:105770000008F808203F210101213F20000808F817
:10578000080800000020203F20200000000008083A
:10579000F8080800C08080807F00000008F888C0FA
:1057A00028180800203F20012638200008F80800AB
:1057B00000000000203F20202020300008F8F800E2
:1057C000F8F80800203F003F003F200008F830C0F4
:1057D0000008F808203F200007183F00E0100808E4
:1057E0000810E0000F10202020100F0008F8080813
:1057F0000808F000203F210101010000E010080826
:105800000810E0000F18242438504F0008F888884A
:1058100088887000203F2000030C3020007088082A
:10582000080838000038202121221C00180808F838
:10583000080818000000203F2000000008F80800B9
:105840000008F808001F202020201F00087888008A
:1058500000C83808000007380E010000F80800F8FA
:105860000008F800033C0700073C030008186880A4
:105870008068180820302C03032C30200838C8001A
:10588000C83808000000203F200000001008080869
:10589000C83808002038262120201800000000FE0B
:1058A000020202000000007F40404000000C30C0B7
:1058B00000000000000000010638C00000020202E3
:1058C000FE000000004040407F0000000000040295
:1058D00002020400000000000000000000000000C0
:1058E00000000000808080808080808000020204B0
:1058F00000000000000000000000000000008080A8
:10590000808000000019242222223F2008F8008015
:1059100080000000003F112020110E0000000080D8
:1059200080800000000E1120202011000000008067
:105930008088F800000E112020103F200000808099
:1059400080800000001F222222221300008080F0AD
:10595000888888180020203F2020000000008080D8
:1059600080808000006B94949493600008F800801D
:1059700080800000203F210000203F200080989878
:10598000000000000020203F2020000000000080D8
:105990009898000000C08080807F000008F8000018
:1059A00080808000203F24022D302000000808F86D
:1059B000000000000020203F202000008080808028
:1059C00080808000203F20003F20003F80800080BA
:1059D00080800000203F210000203F2000008080C8
:1059E00080800000001F202020201F008080008079
:1059F0008000000080FFA12020110E000000008028
:105A000080808000000E112020A0FF808080800018
:105A10008080800020203F21200001000000808045
:105A2000808080000033242424241900008080E03A
:105A3000808000000000001F202000008080000007
:105A400000808000001F202020103F2080808000E8
:105A50000080808000010E300806010080800080F8
:105A6000008080800F300C030C300F00008080001D
:105A7000808080000020312E0E3120008080800048
:105A80000080808080818E701806010000808080F8
:105A9000808080000021302C222130000000000096
:105AA000807C020200000000003F40400000000037
:105AB000FF00000000000000FF0000000002027C68
:105AC000800000000040403F00000000000601018F
:105AD00002020404000000000000000001020304B0
